:060000000A128A11FC2F18
:100008000E280330F3009730F200F20B0928F30BA7
:1000180009280E280130F0020030031CF103F10218
:10002800700A031D1B28710A031D1B281C2805289C
:100038000800F800F401F5017008F200F3017208F5
:10004800F6007308F700781C2A282B283128760830
:10005800F4070318F50A7708F50701300310F60DC1
:10006800F70DFF3E031D32280310F80C7808031D16
:100078003E283F2827287508F1007408F00008007A
:10008800FB01F71F482849285028F609F709F60AFE
:100098000319F70A0130FB00F91F532854285B287D
:1000A800F809F909F80A0319F90A0130FB06FC01F5
:1000B800FD0176087704031962286328982801301F
:1000C800FA006F2801300310F60DF70DFF3E031DEF
:1000D80067280130FA07F71F72287328662801304D
:1000E8000310FC0DFD0DFF3E031D742877087902EF
:1000F800031D802876087802031C832884288B280F
:100108007608F8027708031CF903F9027C14013019
:100118000310F70CF60CFF3E031D8C280130FA0281
:10012800031D9728982873287B0803199C289D2865
:10013800A228FC09FD09FC0A0319FD0A7D08F7003D
:100148007C08F600080000307005F80000307105E2
:10015800F90080307205FA007F307305FB007B08D8
:100168007A0479047804031DBA28BB28C328003010
:10017800F3000030F2000030F1000030F0000030F1
:100188007405F80000307505F90080307605FA002E
:100198007F307705FB007B087A0479047804031D17
:1001A800D628D728DF280030F7000030F6000030C6
:1001B800F5000030F400F31FE228E3280729003097
:1001C800F8000030F9000030FA008030FB007008B9
:1001D800F8027108031C710FF228F328F90272085B
:1001E800031C720FF828F928FA027308031C730F0E
:1001F800FE28FF28FB027B08F3007A08F200790842
:10020800F1007808F000F71F0A290B292F29003080
:10021800F8000030F9000030FA008030FB00740864
:10022800F8027508031C750F1A291B29F9027608AC
:10023800031C760F20292129FA027708031C770F5F
:1002480026292729FB027B08F7007A08F600790897
:10025800F5007808F4008030F3068030F706770858
:100268007302031D412976087202031D412975088E
:100278007102031D41297408700203184429452995
:1002880047290310482903140800F80078080319BF
:100298004E294F296329F31F5229532963297009CD
:1002A800FA007109FB007209FC007309FD00FA0AE3
:1002B8000319FB0A0319FC0A0319FD0A6B297308C1
:1002C800FD007208FC007108FB007008FA00730852
:1002D800720471047004031D722973297C2900308B
:1002E800F3000030F2000030F1000030F000FC298B
:1002F8009630F9008A290130F90701300310FD0C06
:10030800FC0CFB0CFA0CFF3E031D8229FE307D0518
:10031800031D8F2990297F29AA290130F907013067
:10032800FA07003003180130FB07003003180130CA
:10033800FC07003003180130FD0701300310FD0CE5
:10034800FC0CFB0CFA0CFF3E031DA229FF307D05B7
:10035800031DAF29B0299129BC290130F9020130C8
:10036800F4000310FA0DFB0DFC0DFD0DF40BB5297F
:10037800FC1BBF29C029C629023079020318C529E8
:10038800C629B1297918C929CA29D229FF30FA05FD
:10039800FF30FB057F30FC05FF30FD050310F90C2D
:1003A8007908F400F501F601F70118300310F40D8F
:1003B800F50DF60DF70DFF3E031DDA297408FA0452
:1003C8007508FB047608FC047708FD04780803190F
:1003D800EE29EF29F429F31FF229F329F429FD174F
:1003E8007D08F3007C08F2007B08F1007A08F00031
:1003F80008000A128A1579270A128A118312031330
:10040800061C072A082A102A08141E300A128A1500
:10041800DB270A128A112F2A861C132A142A1C2A5F
:10042800081450300A128A15DB270A128A112F2A5B
:10043800061D1F2A202A292A081088141E300A128D
:100448008A15DB270A128A112F2A00300A128A1508
:10045800DB270A128A1100300A128A1591270A121C
:100468008A11710883120313D9007008D800443028
:10047800BD007F30BC00C030BB000030BA00403047
:10048800A300A030A2000030A1000030A00058084E
:10049800F0005908F100F201F30100300A128A1144
:1004A80049210A128A11730883120313A7007208DC
:1004B800A6007108A5007008A4000A128A11BA24BF
:1004C8000A128A11831203132308C1002208C000EC
:1004D8002108BF002008BE000A128A11F0220A1261
:1004E8008A11831203133D08D7003C08D6003B0845
:1004F800D5003A08D4004230A300C830A20000302A
:10050800A1000030A0005708A7005608A60055080B
:10051800A5005408A4000A128A11BA240A128A11E2
:10052800831203132308DD002208DC002108DB0006
:100538002008DA005D08F3005C08F2005B08F100AF
:100548005A08F0004130F7007030F6000030F5002E
:100558000030F4000A128A11A7200A128A1103181F
:10056800B62AB72ABD2A8312031308158811081260
:10057800E32A4230F3000C30F2000030F100003082
:10058800F000831203135D08F7005C08F6005B08AF
:10059800F5005A08F4000A128A11A7200A128A11D3
:1005A800031CD72AD82ADE2A8312031308118815B8
:1005B8000812E32A831203130811881108166430FD
:1005C800F0000030F1000A128A1104200A128A1180
:1005D800022A0A128A110028831203134108CB0049
:1005E8008030CB054108C2004207D200C01FFD2A57
:1005F800FE2AFF2A521452080319032B042B142B2A
:10060800520A031D082B092B112B0030C1000030A2
:10061800C0000030BF000030BE00C017C1011C2B55
:100628000030C1000030C0000030BF000030BE0004
:100638003D088039CB063D08C2004207D300BC1FE5
:10064800262B272B282B5314530803192C2B2D2B1F
:100658003D2B530A031D312B322B3A2B0030BD00A2
:100668000030BC000030BB000030BA00BC17BD0130
:10067800452B0030BD000030BC000030BB0000300E
:10068800BA003D083C043B043A04031D4C2B4D2B97
:10069800642B0030C1000030C0000030BF000030C3
:1006A800BE008030C0047F30C1044B08C10441083B
:1006B800BD004008BC003F08BB003E08BA00B92C8A
:1006C8005208031D682B692B722B0030BD000030C7
:1006D800BC000030BB000030BA00B92C5208C20080
:1006E800C3014308C50053084202C400031CC503E4
:1006F80044087F3ECC0045080318013E003ECD006B
:100708004108CA004008C9003F08C8003E08C700A1
:100718000030C1000030C0000030BF000030BE0013
:100728000030D1000030D0000030CF000030CE00C3
:10073800D301E62B53080319A22BA32BC32B01309B
:10074800C2000310C70DC80DC90DCA0DC20BA52BD9
:100758000130C2000310BE0DBF0DC00DC10DC20B8C
:10076800AE2BD11FB82BB92BBA2B3E140130C200C7
:100778000310CE0DCF0DD00DD10DC20BBC2B3D08F3
:100788004A02031DD12B3C084902031DD12B3B080B
:100798004802031DD12B3A084702031CD42BD52B42
:1007A800E42B51173A08C7023B08031C3B0FC80249
:1007B8003C08031C3C0FC9023D08031C3D0FCA023C
:1007C8000130D3071A305302031CEB2BEC2B9E2B62
:1007D8004A084904480447040319F32BF42B132C43
:1007E8004E14132C0130C2000310BE0DBF0DC00DF6
:1007F800C10DC20BF82BD11F022C032C042C3E1464
:100808000130C2000310CE0DCF0DD00DD10DC20B9B
:10081800062CFF30CC070318CD0AFF30CD07C01FC8
:10082800162C172CF62BD301D11F1B2C1C2C382C63
:10083800FF304E05C200FF304F05C300FF305005A2
:10084800C4007F305105C5004508440443044204F0
:1008580003192F2C302C332C0130D300382C3E1C9C
:10086800362C372C382C302C530803193C2C3D2CB3
:100878006E2C0130BE07003003180130BF0700306E
:1008880003180130C007003003180130C107411CAC
:100898004E2C4F2C6E2C3E08C2003F08C300400867
:1008A800C4004108C5000130C600450DC50CC40C84
:1008B800C30CC20CC60B592C4508C1004408C00023
:1008C8004308BF004208BE000130CC070318CD0A18
:1008D8000030CD074D08803AFF0080307F02031DAD
:1008E800772CFF304C02031C7A2C7B2C892CFF3090
:1008F80083120313CC000030CD000030C10000305B
:10090800C0000030BF000030BE00831203134D0842
:10091800803AFF0080307F02031D942C01304C0286
:100928000318972C982CA52C83120313CC01CD0106
:100938000030C1000030C0000030BF000030BE00F1
:10094800CB01831203134C08D200521CAC2CAD2CE3
:10095800AF2CC017B12C7F30C0055208C20003105D
:10096800420CC1004B08C1045B2B0800831203131F
:100978002308AD008030AD052308A8002807B30080
:10098800A21FC72CC82CC92C331433080319CD2C2B
:10099800CE2CDD2C330A031DD22CD32CDB2C0030BB
:1009A800A3000030A2000030A1000030A000A21770
:1009B800E52C0030A3000030A2000030A100003078
:1009C800A00027088039AD062708A8002807B2002C
:1009D800A61FEF2CF02CF12C321432080319F52C39
:1009E800F62C052D320A031DFA2CFB2C032D0030A2
:1009F800A7000030A6000030A5000030A400A6170C
:100A08000D2D0030A7000030A6000030A5000030F2
:100A1800A40032080319112D122D172D3308031DB8
:100A2800162D172D202D0030A3000030A200003015
:100A3800A1000030A000FB2F2008F00026080A12B1
:100A48008A111D200A128A11710883120313B90032
:100A58007008B8003808A800A901AA01AB012B0842
:100A6800B1002A08B0002908AF002808AE003908EC
:100A7800A800A901AA01AB012B08B7002A08B600F3
:100A88002908B5002808B4002108F00025080A1232
:100A98008A111D200A128A11710883120313B900E2
:100AA8007008B8003808A800A901AA01AB012808F5
:100AB800AE07290803110318013E0319642DAF0777
:100AC8002A0803110318013E03196B2DB0072B08E0
:100AD80003110318013E0319722DB1073908A80044
:100AE800A901AA01AB012808B407290803110318B2
:100AF800013E0319802DB5072A0803110318013E8A
:100B08000319872DB6072B0803110318013E031993
:100B18008E2DB7072208F00024080A128A111D201A
:100B28000A128A11710883120313B9007008B800F9
:100B38003808A800A901AA01AB012808AE072908AE
:100B480003110318013E0319AA2DAF072A08031140
:100B58000318013E0319B12DB0072B080311031820
:100B6800013E0319B82DB1073908A800A901AA0147
:100B7800AB012808B407290803110318013E03191B
:100B8800C62DB5072A0803110318013E0319CD2DF8
:100B9800B6072B0803110318013E0319D42DB70714
:100BA8000830A8000310AE0DAF0DB00DB10DA80BA5
:100BB800D62D2108F00024080A128A111D200A12D5
:100BC8008A11710883120313B9007008B800380835
:100BD800A8003908A900AA01AB012808AE0729080E
:100BE80003110318013E0319FA2DAF072A08031150
:100BF8000318013E0319012EB0072B08031103182F
:100C0800013E0319082EB1072008F00025080A1232
:100C18008A111D200A128A11710883120313B90060
:100C28007008B8003808A8003908A900AA01AB0163
:100C38002808AE07290803110318013E0319252EB9
:100C4800AF072A0803110318013E03192C2EB00719
:100C58002B0803110318013E0319332EB10708307E
:100C6800A8000310AE0DAF0DB00DB10DA80B352EB9
:100C78002008F00024080A128A111D200A128A117D
:100C8800710883120313B9007008B8003808A80067
:100C98003908A900AA01AB012808AE0729080311E1
:100CA8000318013E0319592EAF072A080311031828
:100CB800013E0319602EB0072B0803110318013EEB
:100CC8000319672EB1072108F00026080A128A11B5
:100CD8001D200A128A11710883120313B9007008C3
:100CE800B8003808A8003908A900AA01AB012808EB
:100CF800B407290803110318013E0319842EB50708
:100D08002A0803110318013E03198B2EB6072B0876
:100D180003110318013E0319922EB7072208F000A9
:100D280025080A128A111D200A128A1171088312D5
:100D38000313B9007008B8003808A8003908A900DA
:100D4800AA01AB012808B407290803110318013EBA
:100D58000319AF2EB5072A0803110318013E03191A
:100D6800B62EB6072B0803110318013E0319BD2E32
:100D7800B7072208F00026080A128A111D200A1255
:100D88008A11710883120313B9007008B800380873
:100D9800A8003908A900AA01AB0108300310A80D62
:100DA800A90DAA0DAB0DFF3E031DD22E2808B407CE
:100DB800290803110318013E0319E32EB5072A0871
:100DC80003110318013E0319EA2EB6072B08031175
:100DD8000318013E0319F12EB7072E08A8002F08A3
:100DE800A9003008AA003108AB0018300310AB0C7A
:100DF800AA0CA90CA80CFF3E031DFA2E2808B4075C
:100E0800290803110318013E03190B2FB5072A08F7
:100E180003110318013E0319122FB6072B080311FB
:100E28000318013E0319192FB7070830A80003104B
:100E3800AE0DAF0DB00DB10DA80B1B2F3308320747
:100E4800A800A901A90D2808823EB800290803189E
:100E5800013EFF3EB9004D2F0130A8000310B40D2C
:100E6800B50DB60DB70DA80B322FB11F3C2F3D2F76
:100E78003E2F34140130A8000310AE0DAF0DB00D95
:100E8800B10DA80B402FFF30B8070318B90AFF307F
:100E9800B907B61F502F512F302FB201B11F552F50
:100EA800562F722FFF302E05A800FF302F05A900FE
:100EB800FF303005AA007F303105AB002B082A042B
:100EC800290428040319692F6A2F6D2F0130B200F5
:100ED800722F341C702F712F722F6A2F320803194A
:100EE800762F772FA82F0130B40700300318013070
:100EF800B507003003180130B60700300318013079
:100F0800B707371C882F892FA82F3408A800350861
:100F1800A9003608AA003708AB000130AC002B0D39
:100F2800AB0CAA0CA90CA80CAC0B932F2B08B70080
:100F38002A08B6002908B5002808B4000130B80707
:100F48000318B90A0030B9073908803AFF00803021
:100F58007F02031DB12FFF303802031CB42FB52FB9
:100F6800C02F7F3083120313B7008030B6000030E3
:100F7800B5000030B400F12F831203133908803A0A
:100F8800FF0080307F02031DCB2F01303802031889
:100F9800CE2FCF2FDB2F003083120313B700003082
:100FA800B6000030B5000030B400AD01F12F831257
:100FB80003133808B300FF30B405FF30B5057F30A0
:100FC800B6050030B705331CEA2FEB2FEC2FB61708
:100FD8003308A8000310280CB7002D08B7043708F9
:100FE800A3003608A2003508A1003408A0000800B4
:080FF80083010A128A11FD2990
:101EF20007308316031386008801870180309F0014
:101F02000130831203139F00FF30831603139200E4
:101F12000C308312031397000430920095010800DD
:101F2200F4007408F20002300310F20DFF3E031DAC
:101F3200952F0310720D0138831203139F004E3048
:101F4200F300EB30F200F20BA42FF30BA42F831259
:101F520003131F151F19AE2FAF2FAB2F1E08F10051
:101F6200831603131E08F0000800F401F501701C2B
:101F7200BB2FBC2FC22F7208F4070318F50A73088F
:101F8200F50701300310F20DF30DFF3E031DC32FC1
:101F920001300310F10CF00CFF3E031DCA2F700834
:101FA2007104031DD52FD62FB82F7508F1007408C0
:101FB200F000080083120313A2006430F600003020
:101FC200F7002208A000A1012008F0002108F1007A
:101FD200FF30F2000030F3000A128A15B6270A1207
:101FE2008A157108F9007008F8000A128A11442053
:0E1FF2000A128A157608831203139500080060
:00000001FF
